{
	"CheckIn.sol": {
		"CheckIn": {
			"abi": [
				{
					"anonymous": false,
					"inputs": [
						{
							"indexed": true,
							"internalType": "address",
							"name": "user",
							"type": "address"
						},
						{
							"indexed": false,
							"internalType": "uint256",
							"name": "timestamp",
							"type": "uint256"
						},
						{
							"indexed": false,
							"internalType": "uint256",
							"name": "currentStreak",
							"type": "uint256"
						},
						{
							"indexed": false,
							"internalType": "uint256",
							"name": "total",
							"type": "uint256"
						}
					],
					"name": "CheckedIn",
					"type": "event"
				},
				{
					"inputs": [],
					"name": "DAY",
					"outputs": [
						{
							"internalType": "uint256",
							"name": "",
							"type": "uint256"
						}
					],
					"stateMutability": "view",
					"type": "function"
				},
				{
					"inputs": [],
					"name": "checkIn",
					"outputs": [],
					"stateMutability": "nonpayable",
					"type": "function"
				},
				{
					"inputs": [
						{
							"internalType": "address",
							"name": "",
							"type": "address"
						}
					],
					"name": "lastCheckInAt",
					"outputs": [
						{
							"internalType": "uint256",
							"name": "",
							"type": "uint256"
						}
					],
					"stateMutability": "view",
					"type": "function"
				},
				{
					"inputs": [
						{
							"internalType": "address",
							"name": "user",
							"type": "address"
						}
					],
					"name": "secondsUntilNextCheckIn",
					"outputs": [
						{
							"internalType": "uint256",
							"name": "",
							"type": "uint256"
						}
					],
					"stateMutability": "view",
					"type": "function"
				},
				{
					"inputs": [
						{
							"internalType": "address",
							"name": "",
							"type": "address"
						}
					],
					"name": "streak",
					"outputs": [
						{
							"internalType": "uint256",
							"name": "",
							"type": "uint256"
						}
					],
					"stateMutability": "view",
					"type": "function"
				},
				{
					"inputs": [
						{
							"internalType": "address",
							"name": "",
							"type": "address"
						}
					],
					"name": "totalCheckIns",
					"outputs": [
						{
							"internalType": "uint256",
							"name": "",
							"type": "uint256"
						}
					],
					"stateMutability": "view",
					"type": "function"
				}
			],
			"devdoc": {
				"kind": "dev",
				"methods": {},
				"version": 1
			},
			"evm": {
				"assembly": "    /* \"CheckIn.sol\":58:1799  contract CheckIn {... */\n  mstore(0x40, 0x80)\n  callvalue\n  dup1\n  iszero\n  tag_1\n  jumpi\n  0x00\n  dup1\n  revert\ntag_1:\n  pop\n  dataSize(sub_0)\n  dup1\n  dataOffset(sub_0)\n  0x00\n  codecopy\n  0x00\n  return\nstop\n\nsub_0: assembly {\n        /* \"CheckIn.sol\":58:1799  contract CheckIn {... */\n      mstore(0x40, 0x80)\n      callvalue\n      dup1\n      iszero\n      tag_1\n      jumpi\n      0x00\n      dup1\n      revert\n    tag_1:\n      pop\n      jumpi(tag_2, lt(calldatasize, 0x04))\n      shr(0xe0, calldataload(0x00))\n      dup1\n      0x183ff085\n      eq\n      tag_3\n      jumpi\n      dup1\n      0x27cfe856\n      eq\n      tag_4\n      jumpi\n      dup1\n      0x6a2a6518\n      eq\n      tag_5\n      jumpi\n      dup1\n      0x828e1ffd\n      eq\n      tag_6\n      jumpi\n      dup1\n      0x9519aaf6\n      eq\n      tag_7\n      jumpi\n      dup1\n      0xdd1f0d59\n      eq\n      tag_8\n      jumpi\n    tag_2:\n      0x00\n      dup1\n      revert\n        /* \"CheckIn.sol\":672:1424  function checkIn() external {... */\n    tag_3:\n      tag_9\n      tag_10\n      jump\t// in\n    tag_9:\n      stop\n        /* \"CheckIn.sol\":105:141  uint256 public constant DAY = 1 days */\n    tag_4:\n      tag_11\n      tag_12\n      jump\t// in\n    tag_11:\n      mload(0x40)\n      tag_13\n      swap2\n      swap1\n      tag_14\n      jump\t// in\n    tag_13:\n      mload(0x40)\n      dup1\n      swap2\n      sub\n      swap1\n      return\n        /* \"CheckIn.sol\":291:332  mapping(address => uint256) public streak */\n    tag_5:\n      tag_15\n      0x04\n      dup1\n      calldatasize\n      sub\n      dup2\n      add\n      swap1\n      tag_16\n      swap2\n      swap1\n      tag_17\n      jump\t// in\n    tag_16:\n      tag_18\n      jump\t// in\n    tag_15:\n      mload(0x40)\n      tag_19\n      swap2\n      swap1\n      tag_14\n      jump\t// in\n    tag_19:\n      mload(0x40)\n      dup1\n      swap2\n      sub\n      swap1\n      return\n        /* \"CheckIn.sol\":370:418  mapping(address => uint256) public totalCheckIns */\n    tag_6:\n      tag_20\n      0x04\n      dup1\n      calldatasize\n      sub\n      dup2\n      add\n      swap1\n      tag_21\n      swap2\n      swap1\n      tag_17\n      jump\t// in\n    tag_21:\n      tag_22\n      jump\t// in\n    tag_20:\n      mload(0x40)\n      tag_23\n      swap2\n      swap1\n      tag_14\n      jump\t// in\n    tag_23:\n      mload(0x40)\n      dup1\n      swap2\n      sub\n      swap1\n      return\n        /* \"CheckIn.sol\":1513:1797  function secondsUntilNextCheckIn(address user) external view returns (uint256) {... */\n    tag_7:\n      tag_24\n      0x04\n      dup1\n      calldatasize\n      sub\n      dup2\n      add\n      swap1\n      tag_25\n      swap2\n      swap1\n      tag_17\n      jump\t// in\n    tag_25:\n      tag_26\n      jump\t// in\n    tag_24:\n      mload(0x40)\n      tag_27\n      swap2\n      swap1\n      tag_14\n      jump\t// in\n    tag_27:\n      mload(0x40)\n      dup1\n      swap2\n      sub\n      swap1\n      return\n        /* \"CheckIn.sol\":187:235  mapping(address => uint256) public lastCheckInAt */\n    tag_8:\n      tag_28\n      0x04\n      dup1\n      calldatasize\n      sub\n      dup2\n      add\n      swap1\n      tag_29\n      swap2\n      swap1\n      tag_17\n      jump\t// in\n    tag_29:\n      tag_30\n      jump\t// in\n    tag_28:\n      mload(0x40)\n      tag_31\n      swap2\n      swap1\n      tag_14\n      jump\t// in\n    tag_31:\n      mload(0x40)\n      dup1\n      swap2\n      sub\n      swap1\n      return\n        /* \"CheckIn.sol\":672:1424  function checkIn() external {... */\n    tag_10:\n        /* \"CheckIn.sol\":710:722  uint256 last */\n      0x00\n        /* \"CheckIn.sol\":725:738  lastCheckInAt */\n      dup1\n        /* \"CheckIn.sol\":725:750  lastCheckInAt[msg.sender] */\n      0x00\n        /* \"CheckIn.sol\":739:749  msg.sender */\n      caller\n        /* \"CheckIn.sol\":725:750  lastCheckInAt[msg.sender] */\n      0xffffffffffffffffffffffffffffffffffffffff\n      and\n      0xffffffffffffffffffffffffffffffffffffffff\n      and\n      dup2\n      mstore\n      0x20\n      add\n      swap1\n      dup2\n      mstore\n      0x20\n      add\n      0x00\n      keccak256\n      sload\n        /* \"CheckIn.sol\":710:750  uint256 last = lastCheckInAt[msg.sender] */\n      swap1\n      pop\n        /* \"CheckIn.sol\":760:773  uint256 nowTs */\n      0x00\n        /* \"CheckIn.sol\":776:791  block.timestamp */\n      timestamp\n        /* \"CheckIn.sol\":760:791  uint256 nowTs = block.timestamp */\n      swap1\n      pop\n        /* \"CheckIn.sol\":872:873  0 */\n      0x00\n        /* \"CheckIn.sol\":864:868  last */\n      dup3\n        /* \"CheckIn.sol\":864:873  last == 0 */\n      eq\n        /* \"CheckIn.sol\":864:896  last == 0 || nowTs >= last + DAY */\n      dup1\n      tag_33\n      jumpi\n      pop\n        /* \"CheckIn.sol\":135:141  1 days */\n      0x015180\n        /* \"CheckIn.sol\":886:890  last */\n      dup3\n        /* \"CheckIn.sol\":886:896  last + DAY */\n      tag_34\n      swap2\n      swap1\n      tag_35\n      jump\t// in\n    tag_34:\n        /* \"CheckIn.sol\":877:882  nowTs */\n      dup2\n        /* \"CheckIn.sol\":877:896  nowTs >= last + DAY */\n      lt\n      iszero\n        /* \"CheckIn.sol\":864:896  last == 0 || nowTs >= last + DAY */\n    tag_33:\n        /* \"CheckIn.sol\":856:923  require(last == 0 || nowTs >= last + DAY, \"Too early: one per day\") */\n      tag_36\n      jumpi\n      mload(0x40)\n      0x08c379a000000000000000000000000000000000000000000000000000000000\n      dup2\n      mstore\n      0x04\n      add\n      tag_37\n      swap1\n      tag_38\n      jump\t// in\n    tag_37:\n      mload(0x40)\n      dup1\n      swap2\n      sub\n      swap1\n      revert\n    tag_36:\n        /* \"CheckIn.sol\":1112:1113  0 */\n      0x00\n        /* \"CheckIn.sol\":1104:1108  last */\n      dup3\n        /* \"CheckIn.sol\":1104:1113  last != 0 */\n      eq\n      iszero\n        /* \"CheckIn.sol\":1104:1140  last != 0 && nowTs <= last + 2 * DAY */\n      dup1\n      iszero\n      tag_39\n      jumpi\n      pop\n        /* \"CheckIn.sol\":135:141  1 days */\n      0x015180\n        /* \"CheckIn.sol\":1133:1134  2 */\n      0x02\n        /* \"CheckIn.sol\":1133:1140  2 * DAY */\n      tag_40\n      swap2\n      swap1\n      tag_41\n      jump\t// in\n    tag_40:\n        /* \"CheckIn.sol\":1126:1130  last */\n      dup3\n        /* \"CheckIn.sol\":1126:1140  last + 2 * DAY */\n      tag_42\n      swap2\n      swap1\n      tag_35\n      jump\t// in\n    tag_42:\n        /* \"CheckIn.sol\":1117:1122  nowTs */\n      dup2\n        /* \"CheckIn.sol\":1117:1140  nowTs <= last + 2 * DAY */\n      gt\n      iszero\n        /* \"CheckIn.sol\":1104:1140  last != 0 && nowTs <= last + 2 * DAY */\n    tag_39:\n        /* \"CheckIn.sol\":1100:1243  if (last != 0 && nowTs <= last + 2 * DAY) {... */\n      iszero\n      tag_43\n      jumpi\n        /* \"CheckIn.sol\":1178:1179  1 */\n      0x01\n        /* \"CheckIn.sol\":1156:1162  streak */\n      dup1\n        /* \"CheckIn.sol\":1156:1174  streak[msg.sender] */\n      0x00\n        /* \"CheckIn.sol\":1163:1173  msg.sender */\n      caller\n        /* \"CheckIn.sol\":1156:1174  streak[msg.sender] */\n      0xffffffffffffffffffffffffffffffffffffffff\n      and\n      0xffffffffffffffffffffffffffffffffffffffff\n      and\n      dup2\n      mstore\n      0x20\n      add\n      swap1\n      dup2\n      mstore\n      0x20\n      add\n      0x00\n      keccak256\n      0x00\n        /* \"CheckIn.sol\":1156:1179  streak[msg.sender] += 1 */\n      dup3\n      dup3\n      sload\n      tag_44\n      swap2\n      swap1\n      tag_35\n      jump\t// in\n    tag_44:\n      swap3\n      pop\n      pop\n      dup2\n      swap1\n      sstore\n      pop\n        /* \"CheckIn.sol\":1100:1243  if (last != 0 && nowTs <= last + 2 * DAY) {... */\n      jump(tag_45)\n    tag_43:\n        /* \"CheckIn.sol\":1231:1232  1 */\n      0x01\n        /* \"CheckIn.sol\":1210:1216  streak */\n      dup1\n        /* \"CheckIn.sol\":1210:1228  streak[msg.sender] */\n      0x00\n        /* \"CheckIn.sol\":1217:1227  msg.sender */\n      caller\n        /* \"CheckIn.sol\":1210:1228  streak[msg.sender] */\n      0xffffffffffffffffffffffffffffffffffffffff\n      and\n      0xffffffffffffffffffffffffffffffffffffffff\n      and\n      dup2\n      mstore\n      0x20\n      add\n      swap1\n      dup2\n      mstore\n      0x20\n      add\n      0x00\n      keccak256\n        /* \"CheckIn.sol\":1210:1232  streak[msg.sender] = 1 */\n      dup2\n      swap1\n      sstore\n      pop\n        /* \"CheckIn.sol\":1100:1243  if (last != 0 && nowTs <= last + 2 * DAY) {... */\n    tag_45:\n        /* \"CheckIn.sol\":1281:1286  nowTs */\n      dup1\n        /* \"CheckIn.sol\":1253:1266  lastCheckInAt */\n      0x00\n        /* \"CheckIn.sol\":1253:1278  lastCheckInAt[msg.sender] */\n      dup1\n        /* \"CheckIn.sol\":1267:1277  msg.sender */\n      caller\n        /* \"CheckIn.sol\":1253:1278  lastCheckInAt[msg.sender] */\n      0xffffffffffffffffffffffffffffffffffffffff\n      and\n      0xffffffffffffffffffffffffffffffffffffffff\n      and\n      dup2\n      mstore\n      0x20\n      add\n      swap1\n      dup2\n      mstore\n      0x20\n      add\n      0x00\n      keccak256\n        /* \"CheckIn.sol\":1253:1286  lastCheckInAt[msg.sender] = nowTs */\n      dup2\n      swap1\n      sstore\n      pop\n        /* \"CheckIn.sol\":1325:1326  1 */\n      0x01\n        /* \"CheckIn.sol\":1296:1309  totalCheckIns */\n      0x02\n        /* \"CheckIn.sol\":1296:1321  totalCheckIns[msg.sender] */\n      0x00\n        /* \"CheckIn.sol\":1310:1320  msg.sender */\n      caller\n        /* \"CheckIn.sol\":1296:1321  totalCheckIns[msg.sender] */\n      0xffffffffffffffffffffffffffffffffffffffff\n      and\n      0xffffffffffffffffffffffffffffffffffffffff\n      and\n      dup2\n      mstore\n      0x20\n      add\n      swap1\n      dup2\n      mstore\n      0x20\n      add\n      0x00\n      keccak256\n      0x00\n        /* \"CheckIn.sol\":1296:1326  totalCheckIns[msg.sender] += 1 */\n      dup3\n      dup3\n      sload\n      tag_46\n      swap2\n      swap1\n      tag_35\n      jump\t// in\n    tag_46:\n      swap3\n      pop\n      pop\n      dup2\n      swap1\n      sstore\n      pop\n        /* \"CheckIn.sol\":1352:1362  msg.sender */\n      caller\n        /* \"CheckIn.sol\":1342:1417  CheckedIn(msg.sender, nowTs, streak[msg.sender], totalCheckIns[msg.sender]) */\n      0xffffffffffffffffffffffffffffffffffffffff\n      and\n      0x7e4c1be4a7f9736334ae1a21a54b75fe0b8ac49d1c72b89a21ec4802d4f6fabb\n        /* \"CheckIn.sol\":1364:1369  nowTs */\n      dup3\n        /* \"CheckIn.sol\":1371:1377  streak */\n      0x01\n        /* \"CheckIn.sol\":1371:1389  streak[msg.sender] */\n      0x00\n        /* \"CheckIn.sol\":1378:1388  msg.sender */\n      caller\n        /* \"CheckIn.sol\":1371:1389  streak[msg.sender] */\n      0xffffffffffffffffffffffffffffffffffffffff\n      and\n      0xffffffffffffffffffffffffffffffffffffffff\n      and\n      dup2\n      mstore\n      0x20\n      add\n      swap1\n      dup2\n      mstore\n      0x20\n      add\n      0x00\n      keccak256\n      sload\n        /* \"CheckIn.sol\":1391:1404  totalCheckIns */\n      0x02\n        /* \"CheckIn.sol\":1391:1416  totalCheckIns[msg.sender] */\n      0x00\n        /* \"CheckIn.sol\":1405:1415  msg.sender */\n      caller\n        /* \"CheckIn.sol\":1391:1416  totalCheckIns[msg.sender] */\n      0xffffffffffffffffffffffffffffffffffffffff\n      and\n      0xffffffffffffffffffffffffffffffffffffffff\n      and\n      dup2\n      mstore\n      0x20\n      add\n      swap1\n      dup2\n      mstore\n      0x20\n      add\n      0x00\n      keccak256\n      sload\n        /* \"CheckIn.sol\":1342:1417  CheckedIn(msg.sender, nowTs, streak[msg.sender], totalCheckIns[msg.sender]) */\n      mload(0x40)\n      tag_47\n      swap4\n      swap3\n      swap2\n      swap1\n      tag_48\n      jump\t// in\n    tag_47:\n      mload(0x40)\n      dup1\n      swap2\n      sub\n      swap1\n      log2\n        /* \"CheckIn.sol\":700:1424  {... */\n      pop\n      pop\n        /* \"CheckIn.sol\":672:1424  function checkIn() external {... */\n      jump\t// out\n        /* \"CheckIn.sol\":105:141  uint256 public constant DAY = 1 days */\n    tag_12:\n        /* \"CheckIn.sol\":135:141  1 days */\n      0x015180\n        /* \"CheckIn.sol\":105:141  uint256 public constant DAY = 1 days */\n      dup2\n      jump\t// out\n        /* \"CheckIn.sol\":291:332  mapping(address => uint256) public streak */\n    tag_18:\n      mstore(0x20, 0x01)\n      dup1\n      0x00\n      mstore\n      keccak256(0x00, 0x40)\n      0x00\n      swap2\n      pop\n      swap1\n      pop\n      sload\n      dup2\n      jump\t// out\n        /* \"CheckIn.sol\":370:418  mapping(address => uint256) public totalCheckIns */\n    tag_22:\n      mstore(0x20, 0x02)\n      dup1\n      0x00\n      mstore\n      keccak256(0x00, 0x40)\n      0x00\n      swap2\n      pop\n      swap1\n      pop\n      sload\n      dup2\n      jump\t// out\n        /* \"CheckIn.sol\":1513:1797  function secondsUntilNextCheckIn(address user) external view returns (uint256) {... */\n    tag_26:\n        /* \"CheckIn.sol\":1583:1590  uint256 */\n      0x00\n        /* \"CheckIn.sol\":1602:1614  uint256 last */\n      dup1\n        /* \"CheckIn.sol\":1617:1630  lastCheckInAt */\n      0x00\n        /* \"CheckIn.sol\":1617:1636  lastCheckInAt[user] */\n      dup1\n        /* \"CheckIn.sol\":1631:1635  user */\n      dup5\n        /* \"CheckIn.sol\":1617:1636  lastCheckInAt[user] */\n      0xffffffffffffffffffffffffffffffffffffffff\n      and\n      0xffffffffffffffffffffffffffffffffffffffff\n      and\n      dup2\n      mstore\n      0x20\n      add\n      swap1\n      dup2\n      mstore\n      0x20\n      add\n      0x00\n      keccak256\n      sload\n        /* \"CheckIn.sol\":1602:1636  uint256 last = lastCheckInAt[user] */\n      swap1\n      pop\n        /* \"CheckIn.sol\":1658:1659  0 */\n      0x00\n        /* \"CheckIn.sol\":1650:1654  last */\n      dup2\n        /* \"CheckIn.sol\":1650:1659  last == 0 */\n      sub\n        /* \"CheckIn.sol\":1646:1669  if (last == 0) return 0 */\n      tag_50\n      jumpi\n        /* \"CheckIn.sol\":1668:1669  0 */\n      0x00\n        /* \"CheckIn.sol\":1661:1669  return 0 */\n      swap2\n      pop\n      pop\n      jump(tag_49)\n        /* \"CheckIn.sol\":1646:1669  if (last == 0) return 0 */\n    tag_50:\n        /* \"CheckIn.sol\":1679:1691  uint256 next */\n      0x00\n        /* \"CheckIn.sol\":135:141  1 days */\n      0x015180\n        /* \"CheckIn.sol\":1694:1698  last */\n      dup3\n        /* \"CheckIn.sol\":1694:1704  last + DAY */\n      tag_51\n      swap2\n      swap1\n      tag_35\n      jump\t// in\n    tag_51:\n        /* \"CheckIn.sol\":1679:1704  uint256 next = last + DAY */\n      swap1\n      pop\n        /* \"CheckIn.sol\":1737:1741  next */\n      dup1\n        /* \"CheckIn.sol\":1718:1733  block.timestamp */\n      timestamp\n        /* \"CheckIn.sol\":1718:1741  block.timestamp >= next */\n      lt\n        /* \"CheckIn.sol\":1714:1751  if (block.timestamp >= next) return 0 */\n      tag_52\n      jumpi\n        /* \"CheckIn.sol\":1750:1751  0 */\n      0x00\n        /* \"CheckIn.sol\":1743:1751  return 0 */\n      swap3\n      pop\n      pop\n      pop\n      jump(tag_49)\n        /* \"CheckIn.sol\":1714:1751  if (block.timestamp >= next) return 0 */\n    tag_52:\n        /* \"CheckIn.sol\":1775:1790  block.timestamp */\n      timestamp\n        /* \"CheckIn.sol\":1768:1772  next */\n      dup2\n        /* \"CheckIn.sol\":1768:1790  next - block.timestamp */\n      tag_53\n      swap2\n      swap1\n      tag_54\n      jump\t// in\n    tag_53:\n        /* \"CheckIn.sol\":1761:1790  return next - block.timestamp */\n      swap3\n      pop\n      pop\n      pop\n        /* \"CheckIn.sol\":1513:1797  function secondsUntilNextCheckIn(address user) external view returns (uint256) {... */\n    tag_49:\n      swap2\n      swap1\n      pop\n      jump\t// out\n        /* \"CheckIn.sol\":187:235  mapping(address => uint256) public lastCheckInAt */\n    tag_30:\n      mstore(0x20, 0x00)\n      dup1\n      0x00\n      mstore\n      keccak256(0x00, 0x40)\n      0x00\n      swap2\n      pop\n      swap1\n      pop\n      sload\n      dup2\n      jump\t// out\n        /* \"#utility.yul\":7:84   */\n    tag_55:\n        /* \"#utility.yul\":44:51   */\n      0x00\n        /* \"#utility.yul\":73:78   */\n      dup2\n        /* \"#utility.yul\":62:78   */\n      swap1\n      pop\n        /* \"#utility.yul\":7:84   */\n      swap2\n      swap1\n      pop\n      jump\t// out\n        /* \"#utility.yul\":90:208   */\n    tag_56:\n        /* \"#utility.yul\":177:201   */\n      tag_71\n        /* \"#utility.yul\":195:200   */\n      dup2\n        /* \"#utility.yul\":177:201   */\n      tag_55\n      jump\t// in\n    tag_71:\n        /* \"#utility.yul\":172:175   */\n      dup3\n        /* \"#utility.yul\":165:202   */\n      mstore\n        /* \"#utility.yul\":90:208   */\n      pop\n      pop\n      jump\t// out\n        /* \"#utility.yul\":214:436   */\n    tag_14:\n        /* \"#utility.yul\":307:311   */\n      0x00\n        /* \"#utility.yul\":345:347   */\n      0x20\n        /* \"#utility.yul\":334:343   */\n      dup3\n        /* \"#utility.yul\":330:348   */\n      add\n        /* \"#utility.yul\":322:348   */\n      swap1\n      pop\n        /* \"#utility.yul\":358:429   */\n      tag_73\n        /* \"#utility.yul\":426:427   */\n      0x00\n        /* \"#utility.yul\":415:424   */\n      dup4\n        /* \"#utility.yul\":411:428   */\n      add\n        /* \"#utility.yul\":402:408   */\n      dup5\n        /* \"#utility.yul\":358:429   */\n      tag_56\n      jump\t// in\n    tag_73:\n        /* \"#utility.yul\":214:436   */\n      swap3\n      swap2\n      pop\n      pop\n      jump\t// out\n        /* \"#utility.yul\":523:640   */\n    tag_58:\n        /* \"#utility.yul\":632:633   */\n      0x00\n        /* \"#utility.yul\":629:630   */\n      dup1\n        /* \"#utility.yul\":622:634   */\n      revert\n        /* \"#utility.yul\":769:895   */\n    tag_60:\n        /* \"#utility.yul\":806:813   */\n      0x00\n        /* \"#utility.yul\":846:888   */\n      0xffffffffffffffffffffffffffffffffffffffff\n        /* \"#utility.yul\":839:844   */\n      dup3\n        /* \"#utility.yul\":835:889   */\n      and\n        /* \"#utility.yul\":824:889   */\n      swap1\n      pop\n        /* \"#utility.yul\":769:895   */\n      swap2\n      swap1\n      pop\n      jump\t// out\n        /* \"#utility.yul\":901:997   */\n    tag_61:\n        /* \"#utility.yul\":938:945   */\n      0x00\n        /* \"#utility.yul\":967:991   */\n      tag_79\n        /* \"#utility.yul\":985:990   */\n      dup3\n        /* \"#utility.yul\":967:991   */\n      tag_60\n      jump\t// in\n    tag_79:\n        /* \"#utility.yul\":956:991   */\n      swap1\n      pop\n        /* \"#utility.yul\":901:997   */\n      swap2\n      swap1\n      pop\n      jump\t// out\n        /* \"#utility.yul\":1003:1125   */\n    tag_62:\n        /* \"#utility.yul\":1076:1100   */\n      tag_81\n        /* \"#utility.yul\":1094:1099   */\n      dup2\n        /* \"#utility.yul\":1076:1100   */\n      tag_61\n      jump\t// in\n    tag_81:\n        /* \"#utility.yul\":1069:1074   */\n      dup2\n        /* \"#utility.yul\":1066:1101   */\n      eq\n        /* \"#utility.yul\":1056:1119   */\n      tag_82\n      jumpi\n        /* \"#utility.yul\":1115:1116   */\n      0x00\n        /* \"#utility.yul\":1112:1113   */\n      dup1\n        /* \"#utility.yul\":1105:1117   */\n      revert\n        /* \"#utility.yul\":1056:1119   */\n    tag_82:\n        /* \"#utility.yul\":1003:1125   */\n      pop\n      jump\t// out\n        /* \"#utility.yul\":1131:1270   */\n    tag_63:\n        /* \"#utility.yul\":1177:1182   */\n      0x00\n        /* \"#utility.yul\":1215:1221   */\n      dup2\n        /* \"#utility.yul\":1202:1222   */\n      calldataload\n        /* \"#utility.yul\":1193:1222   */\n      swap1\n      pop\n        /* \"#utility.yul\":1231:1264   */\n      tag_84\n        /* \"#utility.yul\":1258:1263   */\n      dup2\n        /* \"#utility.yul\":1231:1264   */\n      tag_62\n      jump\t// in\n    tag_84:\n        /* \"#utility.yul\":1131:1270   */\n      swap3\n      swap2\n      pop\n      pop\n      jump\t// out\n        /* \"#utility.yul\":1276:1605   */\n    tag_17:\n        /* \"#utility.yul\":1335:1341   */\n      0x00\n        /* \"#utility.yul\":1384:1386   */\n      0x20\n        /* \"#utility.yul\":1372:1381   */\n      dup3\n        /* \"#utility.yul\":1363:1370   */\n      dup5\n        /* \"#utility.yul\":1359:1382   */\n      sub\n        /* \"#utility.yul\":1355:1387   */\n      slt\n        /* \"#utility.yul\":1352:1471   */\n      iszero\n      tag_86\n      jumpi\n        /* \"#utility.yul\":1390:1469   */\n      tag_87\n      tag_58\n      jump\t// in\n    tag_87:\n        /* \"#utility.yul\":1352:1471   */\n    tag_86:\n        /* \"#utility.yul\":1510:1511   */\n      0x00\n        /* \"#utility.yul\":1535:1588   */\n      tag_88\n        /* \"#utility.yul\":1580:1587   */\n      dup5\n        /* \"#utility.yul\":1571:1577   */\n      dup3\n        /* \"#utility.yul\":1560:1569   */\n      dup6\n        /* \"#utility.yul\":1556:1578   */\n      add\n        /* \"#utility.yul\":1535:1588   */\n      tag_63\n      jump\t// in\n    tag_88:\n        /* \"#utility.yul\":1525:1588   */\n      swap2\n      pop\n        /* \"#utility.yul\":1481:1598   */\n      pop\n        /* \"#utility.yul\":1276:1605   */\n      swap3\n      swap2\n      pop\n      pop\n      jump\t// out\n        /* \"#utility.yul\":1611:1791   */\n    tag_64:\n        /* \"#utility.yul\":1659:1736   */\n      0x4e487b7100000000000000000000000000000000000000000000000000000000\n        /* \"#utility.yul\":1656:1657   */\n      0x00\n        /* \"#utility.yul\":1649:1737   */\n      mstore\n        /* \"#utility.yul\":1756:1760   */\n      0x11\n        /* \"#utility.yul\":1753:1754   */\n      0x04\n        /* \"#utility.yul\":1746:1761   */\n      mstore\n        /* \"#utility.yul\":1780:1784   */\n      0x24\n        /* \"#utility.yul\":1777:1778   */\n      0x00\n        /* \"#utility.yul\":1770:1785   */\n      revert\n        /* \"#utility.yul\":1797:1988   */\n    tag_35:\n        /* \"#utility.yul\":1837:1840   */\n      0x00\n        /* \"#utility.yul\":1856:1876   */\n      tag_91\n        /* \"#utility.yul\":1874:1875   */\n      dup3\n        /* \"#utility.yul\":1856:1876   */\n      tag_55\n      jump\t// in\n    tag_91:\n        /* \"#utility.yul\":1851:1876   */\n      swap2\n      pop\n        /* \"#utility.yul\":1890:1910   */\n      tag_92\n        /* \"#utility.yul\":1908:1909   */\n      dup4\n        /* \"#utility.yul\":1890:1910   */\n      tag_55\n      jump\t// in\n    tag_92:\n        /* \"#utility.yul\":1885:1910   */\n      swap3\n      pop\n        /* \"#utility.yul\":1933:1934   */\n      dup3\n        /* \"#utility.yul\":1930:1931   */\n      dup3\n        /* \"#utility.yul\":1926:1935   */\n      add\n        /* \"#utility.yul\":1919:1935   */\n      swap1\n      pop\n        /* \"#utility.yul\":1954:1957   */\n      dup1\n        /* \"#utility.yul\":1951:1952   */\n      dup3\n        /* \"#utility.yul\":1948:1958   */\n      gt\n        /* \"#utility.yul\":1945:1981   */\n      iszero\n      tag_93\n      jumpi\n        /* \"#utility.yul\":1961:1979   */\n      tag_94\n      tag_64\n      jump\t// in\n    tag_94:\n        /* \"#utility.yul\":1945:1981   */\n    tag_93:\n        /* \"#utility.yul\":1797:1988   */\n      swap3\n      swap2\n      pop\n      pop\n      jump\t// out\n        /* \"#utility.yul\":1994:2163   */\n    tag_65:\n        /* \"#utility.yul\":2078:2089   */\n      0x00\n        /* \"#utility.yul\":2112:2118   */\n      dup3\n        /* \"#utility.yul\":2107:2110   */\n      dup3\n        /* \"#utility.yul\":2100:2119   */\n      mstore\n        /* \"#utility.yul\":2152:2156   */\n      0x20\n        /* \"#utility.yul\":2147:2150   */\n      dup3\n        /* \"#utility.yul\":2143:2157   */\n      add\n        /* \"#utility.yul\":2128:2157   */\n      swap1\n      pop\n        /* \"#utility.yul\":1994:2163   */\n      swap3\n      swap2\n      pop\n      pop\n      jump\t// out\n        /* \"#utility.yul\":2169:2341   */\n    tag_66:\n        /* \"#utility.yul\":2309:2333   */\n      0x546f6f206561726c793a206f6e65207065722064617900000000000000000000\n        /* \"#utility.yul\":2305:2306   */\n      0x00\n        /* \"#utility.yul\":2297:2303   */\n      dup3\n        /* \"#utility.yul\":2293:2307   */\n      add\n        /* \"#utility.yul\":2286:2334   */\n      mstore\n        /* \"#utility.yul\":2169:2341   */\n      pop\n      jump\t// out\n        /* \"#utility.yul\":2347:2713   */\n    tag_67:\n        /* \"#utility.yul\":2489:2492   */\n      0x00\n        /* \"#utility.yul\":2510:2577   */\n      tag_98\n        /* \"#utility.yul\":2574:2576   */\n      0x16\n        /* \"#utility.yul\":2569:2572   */\n      dup4\n        /* \"#utility.yul\":2510:2577   */\n      tag_65\n      jump\t// in\n    tag_98:\n        /* \"#utility.yul\":2503:2577   */\n      swap2\n      pop\n        /* \"#utility.yul\":2586:2679   */\n      tag_99\n        /* \"#utility.yul\":2675:2678   */\n      dup3\n        /* \"#utility.yul\":2586:2679   */\n      tag_66\n      jump\t// in\n    tag_99:\n        /* \"#utility.yul\":2704:2706   */\n      0x20\n        /* \"#utility.yul\":2699:2702   */\n      dup3\n        /* \"#utility.yul\":2695:2707   */\n      add\n        /* \"#utility.yul\":2688:2707   */\n      swap1\n      pop\n        /* \"#utility.yul\":2347:2713   */\n      swap2\n      swap1\n      pop\n      jump\t// out\n        /* \"#utility.yul\":2719:3138   */\n    tag_38:\n        /* \"#utility.yul\":2885:2889   */\n      0x00\n        /* \"#utility.yul\":2923:2925   */\n      0x20\n        /* \"#utility.yul\":2912:2921   */\n      dup3\n        /* \"#utility.yul\":2908:2926   */\n      add\n        /* \"#utility.yul\":2900:2926   */\n      swap1\n      pop\n        /* \"#utility.yul\":2972:2981   */\n      dup2\n        /* \"#utility.yul\":2966:2970   */\n      dup2\n        /* \"#utility.yul\":2962:2982   */\n      sub\n        /* \"#utility.yul\":2958:2959   */\n      0x00\n        /* \"#utility.yul\":2947:2956   */\n      dup4\n        /* \"#utility.yul\":2943:2960   */\n      add\n        /* \"#utility.yul\":2936:2983   */\n      mstore\n        /* \"#utility.yul\":3000:3131   */\n      tag_101\n        /* \"#utility.yul\":3126:3130   */\n      dup2\n        /* \"#utility.yul\":3000:3131   */\n      tag_67\n      jump\t// in\n    tag_101:\n        /* \"#utility.yul\":2992:3131   */\n      swap1\n      pop\n        /* \"#utility.yul\":2719:3138   */\n      swap2\n      swap1\n      pop\n      jump\t// out\n        /* \"#utility.yul\":3144:3554   */\n    tag_41:\n        /* \"#utility.yul\":3184:3191   */\n      0x00\n        /* \"#utility.yul\":3207:3227   */\n      tag_103\n        /* \"#utility.yul\":3225:3226   */\n      dup3\n        /* \"#utility.yul\":3207:3227   */\n      tag_55\n      jump\t// in\n    tag_103:\n        /* \"#utility.yul\":3202:3227   */\n      swap2\n      pop\n        /* \"#utility.yul\":3241:3261   */\n      tag_104\n        /* \"#utility.yul\":3259:3260   */\n      dup4\n        /* \"#utility.yul\":3241:3261   */\n      tag_55\n      jump\t// in\n    tag_104:\n        /* \"#utility.yul\":3236:3261   */\n      swap3\n      pop\n        /* \"#utility.yul\":3296:3297   */\n      dup3\n        /* \"#utility.yul\":3293:3294   */\n      dup3\n        /* \"#utility.yul\":3289:3298   */\n      mul\n        /* \"#utility.yul\":3318:3348   */\n      tag_105\n        /* \"#utility.yul\":3336:3347   */\n      dup2\n        /* \"#utility.yul\":3318:3348   */\n      tag_55\n      jump\t// in\n    tag_105:\n        /* \"#utility.yul\":3307:3348   */\n      swap2\n      pop\n        /* \"#utility.yul\":3497:3498   */\n      dup3\n        /* \"#utility.yul\":3488:3495   */\n      dup3\n        /* \"#utility.yul\":3484:3499   */\n      div\n        /* \"#utility.yul\":3481:3482   */\n      dup5\n        /* \"#utility.yul\":3478:3500   */\n      eq\n        /* \"#utility.yul\":3458:3459   */\n      dup4\n        /* \"#utility.yul\":3451:3460   */\n      iszero\n        /* \"#utility.yul\":3431:3514   */\n      or\n        /* \"#utility.yul\":3408:3547   */\n      tag_106\n      jumpi\n        /* \"#utility.yul\":3527:3545   */\n      tag_107\n      tag_64\n      jump\t// in\n    tag_107:\n        /* \"#utility.yul\":3408:3547   */\n    tag_106:\n        /* \"#utility.yul\":3192:3554   */\n      pop\n        /* \"#utility.yul\":3144:3554   */\n      swap3\n      swap2\n      pop\n      pop\n      jump\t// out\n        /* \"#utility.yul\":3560:4002   */\n    tag_48:\n        /* \"#utility.yul\":3709:3713   */\n      0x00\n        /* \"#utility.yul\":3747:3749   */\n      0x60\n        /* \"#utility.yul\":3736:3745   */\n      dup3\n        /* \"#utility.yul\":3732:3750   */\n      add\n        /* \"#utility.yul\":3724:3750   */\n      swap1\n      pop\n        /* \"#utility.yul\":3760:3831   */\n      tag_109\n        /* \"#utility.yul\":3828:3829   */\n      0x00\n        /* \"#utility.yul\":3817:3826   */\n      dup4\n        /* \"#utility.yul\":3813:3830   */\n      add\n        /* \"#utility.yul\":3804:3810   */\n      dup7\n        /* \"#utility.yul\":3760:3831   */\n      tag_56\n      jump\t// in\n    tag_109:\n        /* \"#utility.yul\":3841:3913   */\n      tag_110\n        /* \"#utility.yul\":3909:3911   */\n      0x20\n        /* \"#utility.yul\":3898:3907   */\n      dup4\n        /* \"#utility.yul\":3894:3912   */\n      add\n        /* \"#utility.yul\":3885:3891   */\n      dup6\n        /* \"#utility.yul\":3841:3913   */\n      tag_56\n      jump\t// in\n    tag_110:\n        /* \"#utility.yul\":3923:3995   */\n      tag_111\n        /* \"#utility.yul\":3991:3993   */\n      0x40\n        /* \"#utility.yul\":3980:3989   */\n      dup4\n        /* \"#utility.yul\":3976:3994   */\n      add\n        /* \"#utility.yul\":3967:3973   */\n      dup5\n        /* \"#utility.yul\":3923:3995   */\n      tag_56\n      jump\t// in\n    tag_111:\n        /* \"#utility.yul\":3560:4002   */\n      swap5\n      swap4\n      pop\n      pop\n      pop\n      pop\n      jump\t// out\n        /* \"#utility.yul\":4008:4202   */\n    tag_54:\n        /* \"#utility.yul\":4048:4052   */\n      0x00\n        /* \"#utility.yul\":4068:4088   */\n      tag_113\n        /* \"#utility.yul\":4086:4087   */\n      dup3\n        /* \"#utility.yul\":4068:4088   */\n      tag_55\n      jump\t// in\n    tag_113:\n        /* \"#utility.yul\":4063:4088   */\n      swap2\n      pop\n        /* \"#utility.yul\":4102:4122   */\n      tag_114\n        /* \"#utility.yul\":4120:4121   */\n      dup4\n        /* \"#utility.yul\":4102:4122   */\n      tag_55\n      jump\t// in\n    tag_114:\n        /* \"#utility.yul\":4097:4122   */\n      swap3\n      pop\n        /* \"#utility.yul\":4146:4147   */\n      dup3\n        /* \"#utility.yul\":4143:4144   */\n      dup3\n        /* \"#utility.yul\":4139:4148   */\n      sub\n        /* \"#utility.yul\":4131:4148   */\n      swap1\n      pop\n        /* \"#utility.yul\":4170:4171   */\n      dup2\n        /* \"#utility.yul\":4164:4168   */\n      dup2\n        /* \"#utility.yul\":4161:4172   */\n      gt\n        /* \"#utility.yul\":4158:4195   */\n      iszero\n      tag_115\n      jumpi\n        /* \"#utility.yul\":4175:4193   */\n      tag_116\n      tag_64\n      jump\t// in\n    tag_116:\n        /* \"#utility.yul\":4158:4195   */\n    tag_115:\n        /* \"#utility.yul\":4008:4202   */\n      swap3\n      swap2\n      pop\n      pop\n      jump\t// out\n\n    auxdata: 0xa26469706673582212201ed5a772f6b745ec777f5575dfdd58fa4afecb5beb4abeedd6a5976c1b6ee48d64736f6c63430008110033\n}\n",
				"bytecode": {
					"linkReferences": {},
					"object": "608060405234801561001057600080fd5b50610798806100206000396000f3fe608060405234801561001057600080fd5b50600436106100625760003560e01c8063183ff0851461006757806327cfe856146100715780636a2a65181461008f578063828e1ffd146100bf5780639519aaf6146100ef578063dd1f0d591461011f575b600080fd5b61006f61014f565b005b610079610431565b604051610086919061052a565b60405180910390f35b6100a960048036038101906100a491906105a8565b610438565b6040516100b6919061052a565b60405180910390f35b6100d960048036038101906100d491906105a8565b610450565b6040516100e6919061052a565b60405180910390f35b610109600480360381019061010491906105a8565b610468565b604051610116919061052a565b60405180910390f35b610139600480360381019061013491906105a8565b6104f9565b604051610146919061052a565b60405180910390f35b60008060003373ffffffffffffffffffffffffffffffffffffffff1673ffffffffffffffffffffffffffffffffffffffff168152602001908152602001600020549050600042905060008214806101b4575062015180826101b09190610604565b8110155b6101f3576040517f08c379a00000000000000000000000000000000000000000000000000000000081526004016101ea90610695565b60405180910390fd5b6000821415801561021e575062015180600261020f91906106b5565b8261021a9190610604565b8111155b1561027e5760018060003373ffffffffffffffffffffffffffffffffffffffff1673ffffffffffffffffffffffffffffffffffffffff16815260200190815260200160002060008282546102729190610604565b925050819055506102c3565b60018060003373ffffffffffffffffffffffffffffffffffffffff1673ffffffffffffffffffffffffffffffffffffffff168152602001908152602001600020819055505b806000803373ffffffffffffffffffffffffffffffffffffffff1673ffffffffffffffffffffffffffffffffffffffff168152602001908152602001600020819055506001600260003373ffffffffffffffffffffffffffffffffffffffff1673ffffffffffffffffffffffffffffffffffffffff16815260200190815260200160002060008282546103569190610604565b925050819055503373ffffffffffffffffffffffffffffffffffffffff167f7e4c1be4a7f9736334ae1a21a54b75fe0b8ac49d1c72b89a21ec4802d4f6fabb82600160003373ffffffffffffffffffffffffffffffffffffffff1673ffffffffffffffffffffffffffffffffffffffff16815260200190815260200160002054600260003373ffffffffffffffffffffffffffffffffffffffff1673ffffffffffffffffffffffffffffffffffffffff16815260200190815260200160002054604051610425939291906106f7565b60405180910390a25050565b6201518081565b60016020528060005260406000206000915090505481565b60026020528060005260406000206000915090505481565b6000806000808473ffffffffffffffffffffffffffffffffffffffff1673ffffffffffffffffffffffffffffffffffffffff168152602001908152602001600020549050600081036104be5760009150506104f4565b600062015180826104cf9190610604565b90508042106104e3576000925050506104f4565b42816104ef919061072e565b925050505b919050565b60006020528060005260406000206000915090505481565b6000819050919050565b61052481610511565b82525050565b600060208201905061053f600083018461051b565b92915050565b600080fd5b600073ffffffffffffffffffffffffffffffffffffffff82169050919050565b60006105758261054a565b9050919050565b6105858161056a565b811461059057600080fd5b50565b6000813590506105a28161057c565b92915050565b6000602082840312156105be576105bd610545565b5b60006105cc84828501610593565b91505092915050565b7f4e487b7100000000000000000000000000000000000000000000000000000000600052601160045260246000fd5b600061060f82610511565b915061061a83610511565b9250828201905080821115610632576106316105d5565b5b92915050565b600082825260208201905092915050565b7f546f6f206561726c793a206f6e65207065722064617900000000000000000000600082015250565b600061067f601683610638565b915061068a82610649565b602082019050919050565b600060208201905081810360008301526106ae81610672565b9050919050565b60006106c082610511565b91506106cb83610511565b92508282026106d981610511565b915082820484148315176106f0576106ef6105d5565b5b5092915050565b600060608201905061070c600083018661051b565b610719602083018561051b565b610726604083018461051b565b949350505050565b600061073982610511565b915061074483610511565b925082820390508181111561075c5761075b6105d5565b5b9291505056fea26469706673582212201ed5a772f6b745ec777f5575dfdd58fa4afecb5beb4abeedd6a5976c1b6ee48d64736f6c63430008110033",
					"opcodes": "PUSH1 0x80 PUSH1 0x40 MSTORE CALLVALUE DUP1 ISZERO PUSH2 0x10 JUMPI PUSH1 0x0 DUP1 REVERT JUMPDEST POP PUSH2 0x798 DUP1 PUSH2 0x20 PUSH1 0x0 CODECOPY PUSH1 0x0 RETURN INVALID PUSH1 0x80 PUSH1 0x40 MSTORE CALLVALUE DUP1 ISZERO PUSH2 0x10 JUMPI PUSH1 0x0 DUP1 REVERT JUMPDEST POP PUSH1 0x4 CALLDATASIZE LT PUSH2 0x62 JUMPI PUSH1 0x0 CALLDATALOAD PUSH1 0xE0 SHR DUP1 PUSH4 0x183FF085 EQ PUSH2 0x67 JUMPI DUP1 PUSH4 0x27CFE856 EQ PUSH2 0x71 JUMPI DUP1 PUSH4 0x6A2A6518 EQ PUSH2 0x8F JUMPI DUP1 PUSH4 0x828E1FFD EQ PUSH2 0xBF JUMPI DUP1 PUSH4 0x9519AAF6 EQ PUSH2 0xEF JUMPI DUP1 PUSH4 0xDD1F0D59 EQ PUSH2 0x11F JUMPI JUMPDEST PUSH1 0x0 DUP1 REVERT JUMPDEST PUSH2 0x6F PUSH2 0x14F JUMP JUMPDEST STOP JUMPDEST PUSH2 0x79 PUSH2 0x431 JUMP JUMPDEST PUSH1 0x40 MLOAD PUSH2 0x86 SWAP2 SWAP1 PUSH2 0x52A JUMP JUMPDEST PUSH1 0x40 MLOAD DUP1 SWAP2 SUB SWAP1 RETURN JUMPDEST PUSH2 0xA9 PUSH1 0x4 DUP1 CALLDATASIZE SUB DUP2 ADD SWAP1 PUSH2 0xA4 SWAP2 SWAP1 PUSH2 0x5A8 JUMP JUMPDEST PUSH2 0x438 JUMP JUMPDEST PUSH1 0x40 MLOAD PUSH2 0xB6 SWAP2 SWAP1 PUSH2 0x52A JUMP JUMPDEST PUSH1 0x40 MLOAD DUP1 SWAP2 SUB SWAP1 RETURN JUMPDEST PUSH2 0xD9 PUSH1 0x4 DUP1 CALLDATASIZE SUB DUP2 ADD SWAP1 PUSH2 0xD4 SWAP2 SWAP1 PUSH2 0x5A8 JUMP JUMPDEST PUSH2 0x450 JUMP JUMPDEST PUSH1 0x40 MLOAD PUSH2 0xE6 SWAP2 SWAP1 PUSH2 0x52A JUMP JUMPDEST PUSH1 0x40 MLOAD DUP1 SWAP2 SUB SWAP1 RETURN JUMPDEST PUSH2 0x109 PUSH1 0x4 DUP1 CALLDATASIZE SUB DUP2 ADD SWAP1 PUSH2 0x104 SWAP2 SWAP1 PUSH2 0x5A8 JUMP JUMPDEST PUSH2 0x468 JUMP JUMPDEST PUSH1 0x40 MLOAD PUSH2 0x116 SWAP2 SWAP1 PUSH2 0x52A JUMP JUMPDEST PUSH1 0x40 MLOAD DUP1 SWAP2 SUB SWAP1 RETURN JUMPDEST PUSH2 0x139 PUSH1 0x4 DUP1 CALLDATASIZE SUB DUP2 ADD SWAP1 PUSH2 0x134 SWAP2 SWAP1 PUSH2 0x5A8 JUMP JUMPDEST PUSH2 0x4F9 JUMP JUMPDEST PUSH1 0x40 MLOAD PUSH2 0x146 SWAP2 SWAP1 PUSH2 0x52A JUMP JUMPDEST PUSH1 0x40 MLOAD DUP1 SWAP2 SUB SWAP1 RETURN JUMPDEST PUSH1 0x0 DUP1 PUSH1 0x0 CALLER PUSH20 0xFFFFFFFFFFFFFFFFFFFFFFFFFFFFFFFFFFFFFFFF AND PUSH20 0xFFFFFFFFFFFFFFFFFFFFFFFFFFFFFFFFFFFFFFFF AND DUP2 MSTORE PUSH1 0x20 ADD SWAP1 DUP2 MSTORE PUSH1 0x20 ADD PUSH1 0x0 KECCAK256 SLOAD SWAP1 POP PUSH1 0x0 TIMESTAMP SWAP1 POP PUSH1 0x0 DUP3 EQ DUP1 PUSH2 0x1B4 JUMPI POP PUSH3 0x15180 DUP3 PUSH2 0x1B0 SWAP2 SWAP1 PUSH2 0x604 JUMP JUMPDEST DUP2 LT ISZERO JUMPDEST PUSH2 0x1F3 JUMPI PUSH1 0x40 MLOAD PUSH32 0x8C379A000000000000000000000000000000000000000000000000000000000 DUP2 MSTORE PUSH1 0x4 ADD PUSH2 0x1EA SWAP1 PUSH2 0x695 JUMP JUMPDEST PUSH1 0x40 MLOAD DUP1 SWAP2 SUB SWAP1 REVERT JUMPDEST PUSH1 0x0 DUP3 EQ ISZERO DUP1 ISZERO PUSH2 0x21E JUMPI POP PUSH3 0x15180 PUSH1 0x2 PUSH2 0x20F SWAP2 SWAP1 PUSH2 0x6B5 JUMP JUMPDEST DUP3 PUSH2 0x21A SWAP2 SWAP1 PUSH2 0x604 JUMP JUMPDEST DUP2 GT ISZERO JUMPDEST ISZERO PUSH2 0x27E JUMPI PUSH1 0x1 DUP1 PUSH1 0x0 CALLER PUSH20 0xFFFFFFFFFFFFFFFFFFFFFFFFFFFFFFFFFFFFFFFF AND PUSH20 0xFFFFFFFFFFFFFFFFFFFFFFFFFFFFFFFFFFFFFFFF AND DUP2 MSTORE PUSH1 0x20 ADD SWAP1 DUP2 MSTORE PUSH1 0x20 ADD PUSH1 0x0 KECCAK256 PUSH1 0x0 DUP3 DUP3 SLOAD PUSH2 0x272 SWAP2 SWAP1 PUSH2 0x604 JUMP JUMPDEST SWAP3 POP POP DUP2 SWAP1 SSTORE POP PUSH2 0x2C3 JUMP JUMPDEST PUSH1 0x1 DUP1 PUSH1 0x0 CALLER PUSH20 0xFFFFFFFFFFFFFFFFFFFFFFFFFFFFFFFFFFFFFFFF AND PUSH20 0xFFFFFFFFFFFFFFFFFFFFFFFFFFFFFFFFFFFFFFFF AND DUP2 MSTORE PUSH1 0x20 ADD SWAP1 DUP2 MSTORE PUSH1 0x20 ADD PUSH1 0x0 KECCAK256 DUP2 SWAP1 SSTORE POP JUMPDEST DUP1 PUSH1 0x0 DUP1 CALLER PUSH20 0xFFFFFFFFFFFFFFFFFFFFFFFFFFFFFFFFFFFFFFFF AND PUSH20 0xFFFFFFFFFFFFFFFFFFFFFFFFFFFFFFFFFFFFFFFF AND DUP2 MSTORE PUSH1 0x20 ADD SWAP1 DUP2 MSTORE PUSH1 0x20 ADD PUSH1 0x0 KECCAK256 DUP2 SWAP1 SSTORE POP PUSH1 0x1 PUSH1 0x2 PUSH1 0x0 CALLER PUSH20 0xFFFFFFFFFFFFFFFFFFFFFFFFFFFFFFFFFFFFFFFF AND PUSH20 0xFFFFFFFFFFFFFFFFFFFFFFFFFFFFFFFFFFFFFFFF AND DUP2 MSTORE PUSH1 0x20 ADD SWAP1 DUP2 MSTORE PUSH1 0x20 ADD PUSH1 0x0 KECCAK256 PUSH1 0x0 DUP3 DUP3 SLOAD PUSH2 0x356 SWAP2 SWAP1 PUSH2 0x604 JUMP JUMPDEST SWAP3 POP POP DUP2 SWAP1 SSTORE POP CALLER PUSH20 0xFFFFFFFFFFFFFFFFFFFFFFFFFFFFFFFFFFFFFFFF AND PUSH32 0x7E4C1BE4A7F9736334AE1A21A54B75FE0B8AC49D1C72B89A21EC4802D4F6FABB DUP3 PUSH1 0x1 PUSH1 0x0 CALLER PUSH20 0xFFFFFFFFFFFFFFFFFFFFFFFFFFFFFFFFFFFFFFFF AND PUSH20 0xFFFFFFFFFFFFFFFFFFFFFFFFFFFFFFFFFFFFFFFF AND DUP2 MSTORE PUSH1 0x20 ADD SWAP1 DUP2 MSTORE PUSH1 0x20 ADD PUSH1 0x0 KECCAK256 SLOAD PUSH1 0x2 PUSH1 0x0 CALLER PUSH20 0xFFFFFFFFFFFFFFFFFFFFFFFFFFFFFFFFFFFFFFFF AND PUSH20 0xFFFFFFFFFFFFFFFFFFFFFFFFFFFFFFFFFFFFFFFF AND DUP2 MSTORE PUSH1 0x20 ADD SWAP1 DUP2 MSTORE PUSH1 0x20 ADD PUSH1 0x0 KECCAK256 SLOAD PUSH1 0x40 MLOAD PUSH2 0x425 SWAP4 SWAP3 SWAP2 SWAP1 PUSH2 0x6F7 JUMP JUMPDEST PUSH1 0x40 MLOAD DUP1 SWAP2 SUB SWAP1 LOG2 POP POP JUMP JUMPDEST PUSH3 0x15180 DUP2 JUMP JUMPDEST PUSH1 0x1 PUSH1 0x20 MSTORE DUP1 PUSH1 0x0 MSTORE PUSH1 0x40 PUSH1 0x0 KECCAK256 PUSH1 0x0 SWAP2 POP SWAP1 POP SLOAD DUP2 JUMP JUMPDEST PUSH1 0x2 PUSH1 0x20 MSTORE DUP1 PUSH1 0x0 MSTORE PUSH1 0x40 PUSH1 0x0 KECCAK256 PUSH1 0x0 SWAP2 POP SWAP1 POP SLOAD DUP2 JUMP JUMPDEST PUSH1 0x0 DUP1 PUSH1 0x0 DUP1 DUP5 PUSH20 0xFFFFFFFFFFFFFFFFFFFFFFFFFFFFFFFFFFFFFFFF AND PUSH20 0xFFFFFFFFFFFFFFFFFFFFFFFFFFFFFFFFFFFFFFFF AND DUP2 MSTORE PUSH1 0x20 ADD SWAP1 DUP2 MSTORE PUSH1 0x20 ADD PUSH1 0x0 KECCAK256 SLOAD SWAP1 POP PUSH1 0x0 DUP2 SUB PUSH2 0x4BE JUMPI PUSH1 0x0 SWAP2 POP POP PUSH2 0x4F4 JUMP JUMPDEST PUSH1 0x0 PUSH3 0x15180 DUP3 PUSH2 0x4CF SWAP2 SWAP1 PUSH2 0x604 JUMP JUMPDEST SWAP1 POP DUP1 TIMESTAMP LT PUSH2 0x4E3 JUMPI PUSH1 0x0 SWAP3 POP POP POP PUSH2 0x4F4 JUMP JUMPDEST TIMESTAMP DUP2 PUSH2 0x4EF SWAP2 SWAP1 PUSH2 0x72E JUMP JUMPDEST SWAP3 POP POP POP JUMPDEST SWAP2 SWAP1 POP JUMP JUMPDEST PUSH1 0x0 PUSH1 0x20 MSTORE DUP1 PUSH1 0x0 MSTORE PUSH1 0x40 PUSH1 0x0 KECCAK256 PUSH1 0x0 SWAP2 POP SWAP1 POP SLOAD DUP2 JUMP JUMPDEST PUSH1 0x0 DUP2 SWAP1 POP SWAP2 SWAP1 POP JUMP JUMPDEST PUSH2 0x524 DUP2 PUSH2 0x511 JUMP JUMPDEST DUP3 MSTORE POP POP JUMP JUMPDEST PUSH1 0x0 PUSH1 0x20 DUP3 ADD SWAP1 POP PUSH2 0x53F PUSH1 0x0 DUP4 ADD DUP5 PUSH2 0x51B JUMP JUMPDEST SWAP3 SWAP2 POP POP JUMP JUMPDEST PUSH1 0x0 DUP1 REVERT JUMPDEST PUSH1 0x0 PUSH20 0xFFFFFFFFFFFFFFFFFFFFFFFFFFFFFFFFFFFFFFFF DUP3 AND SWAP1 POP SWAP2 SWAP1 POP JUMP JUMPDEST PUSH1 0x0 PUSH2 0x575 DUP3 PUSH2 0x54A JUMP JUMPDEST SWAP1 POP SWAP2 SWAP1 POP JUMP JUMPDEST PUSH2 0x585 DUP2 PUSH2 0x56A JUMP JUMPDEST DUP2 EQ PUSH2 0x590 JUMPI PUSH1 0x0 DUP1 REVERT JUMPDEST POP JUMP JUMPDEST PUSH1 0x0 DUP2 CALLDATALOAD SWAP1 POP PUSH2 0x5A2 DUP2 PUSH2 0x57C JUMP JUMPDEST SWAP3 SWAP2 POP POP JUMP JUMPDEST PUSH1 0x0 PUSH1 0x20 DUP3 DUP5 SUB SLT ISZERO PUSH2 0x5BE JUMPI PUSH2 0x5BD PUSH2 0x545 JUMP JUMPDEST JUMPDEST PUSH1 0x0 PUSH2 0x5CC DUP5 DUP3 DUP6 ADD PUSH2 0x593 JUMP JUMPDEST SWAP2 POP POP SWAP3 SWAP2 POP POP JUMP JUMPDEST PUSH32 0x4E487B7100000000000000000000000000000000000000000000000000000000 PUSH1 0x0 MSTORE PUSH1 0x11 PUSH1 0x4 MSTORE PUSH1 0x24 PUSH1 0x0 REVERT JUMPDEST PUSH1 0x0 PUSH2 0x60F DUP3 PUSH2 0x511 JUMP JUMPDEST SWAP2 POP PUSH2 0x61A DUP4 PUSH2 0x511 JUMP JUMPDEST SWAP3 POP DUP3 DUP3 ADD SWAP1 POP DUP1 DUP3 GT ISZERO PUSH2 0x632 JUMPI PUSH2 0x631 PUSH2 0x5D5 JUMP JUMPDEST JUMPDEST SWAP3 SWAP2 POP POP JUMP JUMPDEST PUSH1 0x0 DUP3 DUP3 MSTORE PUSH1 0x20 DUP3 ADD SWAP1 POP SWAP3 SWAP2 POP POP JUMP JUMPDEST PUSH32 0x546F6F206561726C793A206F6E65207065722064617900000000000000000000 PUSH1 0x0 DUP3 ADD MSTORE POP JUMP JUMPDEST PUSH1 0x0 PUSH2 0x67F PUSH1 0x16 DUP4 PUSH2 0x638 JUMP JUMPDEST SWAP2 POP PUSH2 0x68A DUP3 PUSH2 0x649 JUMP JUMPDEST PUSH1 0x20 DUP3 ADD SWAP1 POP SWAP2 SWAP1 POP JUMP JUMPDEST PUSH1 0x0 PUSH1 0x20 DUP3 ADD SWAP1 POP DUP2 DUP2 SUB PUSH1 0x0 DUP4 ADD MSTORE PUSH2 0x6AE DUP2 PUSH2 0x672 JUMP JUMPDEST SWAP1 POP SWAP2 SWAP1 POP JUMP JUMPDEST PUSH1 0x0 PUSH2 0x6C0 DUP3 PUSH2 0x511 JUMP JUMPDEST SWAP2 POP PUSH2 0x6CB DUP4 PUSH2 0x511 JUMP JUMPDEST SWAP3 POP DUP3 DUP3 MUL PUSH2 0x6D9 DUP2 PUSH2 0x511 JUMP JUMPDEST SWAP2 POP DUP3 DUP3 DIV DUP5 EQ DUP4 ISZERO OR PUSH2 0x6F0 JUMPI PUSH2 0x6EF PUSH2 0x5D5 JUMP JUMPDEST JUMPDEST POP SWAP3 SWAP2 POP POP JUMP JUMPDEST PUSH1 0x0 PUSH1 0x60 DUP3 ADD SWAP1 POP PUSH2 0x70C PUSH1 0x0 DUP4 ADD DUP7 PUSH2 0x51B JUMP JUMPDEST PUSH2 0x719 PUSH1 0x20 DUP4 ADD DUP6 PUSH2 0x51B JUMP JUMPDEST PUSH2 0x726 PUSH1 0x40 DUP4 ADD DUP5 PUSH2 0x51B JUMP JUMPDEST SWAP5 SWAP4 POP POP POP POP JUMP JUMPDEST PUSH1 0x0 PUSH2 0x739 DUP3 PUSH2 0x511 JUMP JUMPDEST SWAP2 POP PUSH2 0x744 DUP4 PUSH2 0x511 JUMP JUMPDEST SWAP3 POP DUP3 DUP3 SUB SWAP1 POP DUP2 DUP2 GT ISZERO PUSH2 0x75C JUMPI PUSH2 0x75B PUSH2 0x5D5 JUMP JUMPDEST JUMPDEST SWAP3 SWAP2 POP POP JUMP INVALID LOG2 PUSH5 0x6970667358 0x22 SLT KECCAK256 0x1E 0xD5 0xA7 PUSH19 0xF6B745EC777F5575DFDD58FA4AFECB5BEB4ABE 0xED 0xD6 0xA5 SWAP8 PUSH13 0x1B6EE48D64736F6C6343000811 STOP CALLER "
				},
				"gasEstimates": {
					"creation": {
						"codeDepositCost": "388800",
						"executionCost": "424",
						"totalCost": "389224"
					},
					"external": {
						"DAY()": "329",
						"checkIn()": "infinite",
						"lastCheckInAt(address)": "2902",
						"secondsUntilNextCheckIn(address)": "infinite",
						"streak(address)": "2836",
						"totalCheckIns(address)": "2858"
					}
				},
				"methodIdentifiers": {
					"DAY()": "27cfe856",
					"checkIn()": "183ff085",
					"lastCheckInAt(address)": "dd1f0d59",
					"secondsUntilNextCheckIn(address)": "9519aaf6",
					"streak(address)": "6a2a6518",
					"totalCheckIns(address)": "828e1ffd"
				}
			},
			"storageLayout": {
				"storage": [
					{
						"astId": 8,
						"contract": "CheckIn.sol:CheckIn",
						"label": "lastCheckInAt",
						"offset": 0,
						"slot": "0",
						"type": "t_mapping(t_address,t_uint256)"
					},
					{
						"astId": 12,
						"contract": "CheckIn.sol:CheckIn",
						"label": "streak",
						"offset": 0,
						"slot": "1",
						"type": "t_mapping(t_address,t_uint256)"
					},
					{
						"astId": 16,
						"contract": "CheckIn.sol:CheckIn",
						"label": "totalCheckIns",
						"offset": 0,
						"slot": "2",
						"type": "t_mapping(t_address,t_uint256)"
					}
				],
				"types": {
					"t_address": {
						"encoding": "inplace",
						"label": "address",
						"numberOfBytes": "20"
					},
					"t_mapping(t_address,t_uint256)": {
						"encoding": "mapping",
						"key": "t_address",
						"label": "mapping(address => uint256)",
						"numberOfBytes": "32",
						"value": "t_uint256"
					},
					"t_uint256": {
						"encoding": "inplace",
						"label": "uint256",
						"numberOfBytes": "32"
					}
				}
			},
			"userdoc": {
				"kind": "user",
				"methods": {
					"checkIn()": {
						"notice": "Check in once per 24 hours. If you check in within the next day window, it reverts."
					},
					"secondsUntilNextCheckIn(address)": {
						"notice": "Convenience helper: how many seconds until you can check in again."
					}
				},
				"version": 1
			}
		}
	}
}